S018000041746D656761333220647269766572732E7372656339
S11300000C942A000C9447000C9447000C9447006D
S11300100C9447000C9447000C9447000C94470040
S11300200C9447000C9447000C9447000C94DB029A
S11300300C9447000C9400030C9447000C94470064
S11300400C9447000C9447000C9447000C94470010
S11300500C94470011241FBECFE5D8E0DEBFCDBF0E
S113006010E0A0E6B0E0ECE1FCE002C005900D92E7
S1130070A43AB107D9F721E0A4EAB0E001C01D9287
S1130080AD30B207E1F70E9476000C940C060C9494
S11300900000CF93DF93CDB7DEB7A8970FB6F894DF
S11300A0DEBF0FBECDBF0E949C020E94D900BE01DC
S11300B06B5E7F4FCE0101960E943D01AE014F5F02
S11300C05F4F61E081E00E943201AE014B5E5F4F01
S11300D061E082E00E9432012FEF89E698E121502D
S11300E080409040E1F700C00000E1CF0E94490049
S11300F080E090E0089561E08BE00E94E80187ECE5
S113010090E00197F1F700C0000060E08BE00E94EE
S1130110E80187EC90E00197F1F700C00000089532
S1130120CF93C82F40E060EF8BE390E00E947E0203
S11301306C2F607F41E08BE390E00E947E020E947E
S11301407B0040E060EF8BE390E00E947E0280E160
S1130150C89FB001112441E08BE390E00E947E022D
S11301600E947B0087EC90E00197F1F700C000004B
S1130170CF910895CF93C82F60E089E00E94E801F1
S11301808C2F0E949000CF91089581E00E94BA00C4
S11301908FE39FE10197F1F700C00000089582E02A
S11301A00E94BA008FE39FE10197F1F700C00000BD
S11301B0089541E060EF8AE390E00E948D0241E0FF
S11301C06EE087E390E00E948D0260E08AE00E9486
S11301D0E8012FEF83EF91E0215080409040E1F758
S11301E000C000000E94CF0086E00E94BA008CE0AC
S11301F00E94BA0080E10E94BA0088E20E94BA001C
S11302000E94C5000895CF93C82F61E089E00E9441
S1130210E8018C2F0E949000CF9108950E94030161
S113022008950F931F93CF938C01C0E003C00E94E5
S11302300E01CF5FF801EC0FF11D80818111F7CF22
S1130240CF911F910F910895813029F48FE7860F84
S11302500E94BA000895823021F48FEB860F0E9429
S1130260BA000895CF93DF93EA010E942401CE01DE
S11302700E941101DF91CF910895EF92FF920F93A5
S11302801F93CF93DF93CDB7DEB727970FB6F894BC
S1130290DEBF0FBECDBFF82EE92E162F072F0E940A
S11302A0AD0268E180ED0E94B60268E180E00E9440
S11302B0B6020E94A2020E94AD0268E181ED0E9492
S11302C0B60260E5CE0101960E94C00260E5CE014F
S11302D002960E94C00260E5CE0103960E94C0020D
S11302E060E5CE0104960E94C00260E5CE01059649
S11302F00E94C00260E5CE0106960E94C00268E535
S1130300CE0107960E94C0020E94A2022981522FA8
S113031052955F709A81492F42954F708B81382F87
S113032032953F702F701F922F931F925F939F708F
S11303301F929F931F924F938F701F928F931F92C0
S11303403F9380E890E09F938F93EF92FF920E94F7
S113035022038C8190E04F81742F72957F703E81CF
S1130360632F62956F702D81522F52955F70880FA5
S1130370991F880F991F805A9F4F9F938F934F7097
S11303801F924F931F927F933F701F923F931F9230
S11303906F932F701F922F931F925F938FE890E0BB
S11303A09F938F930F931F930E9422030FB6F89489
S11303B0DEBF0FBECDBF27960FB6F894DEBF0FBECB
S11303C0CDBFDF91CF911F910F91FF90EF900895D2
S11303D08830F8F4613069F44BB321E030E0B901BE
S11303E002C0660F771F8A95E2F7CB01842B8BBB83
S11303F00895611182C04BB321E030E0B90102C01D
S1130400660F771F8A95E2F7CB01809584238BBB17
S1130410089598EF980F983018F5613079F448B33F
S113042090E0089721E030E0B90102C0660F771F21
S11304308A95E2F7CB01842B88BB089561115DC0D6
S113044048B390E0089721E030E0B90102C0660F9C
S1130450771F8A95E2F7CB018095842388BB0895A2
S113046090EF980F983018F5613079F445B390E027
S1130470409721E030E0B90102C0660F771F8A95EA
S1130480E2F7CB01842B85BB0895611136C045B3D7
S113049090E0409721E030E0B90102C0660F771F79
S11304A08A95E2F7CB018095842385BB089598EE65
S11304B0980F983010F5613079F442B390E0489782
S11304C021E030E0B90102C0660F771F8A95E2F798
S11304D0CB01842B82BB089561110FC042B390E01D
S11304E0489721E030E0B90102C0660F771F8A9572
S11304F0E2F7CB018095842382BB0895413029F42F
S1130500FC012081622B60830895411105C0FC0128
S113051020816095622360830895413029F4FC01B1
S11305202081622B60830895411105C0FC01208164
S1130530609562236083089580E280B986B7846001
S113054086BF089584E986BF089521B191E0883F6C
S113055009F090E0822F8923089584EA86BF06B6C5
S113056007FEFDCF88E00E94A502089583B984E8C0
S113057086BF06B607FEFDCF862F0E94A50208950A
S1130580CF93DF93EC01862F94E896BF603519F47E
S113059096B7906496BF06B607FEFDCF0E94A502EB
S11305A0882321F083B1888381E002C093B19883CA
S11305B0DF91CF9108951F920F920FB60F921124DD
S11305C08F939F93AF93BF938091A4009091A500C4
S11305D0A091A600B091A7000196A11DB11D809322
S11305E0A4009093A500A093A600B093A700BF9188
S11305F0AF919F918F910F900FBE0F901F90189500
S11306001F920F920FB60F9211248F939F93EF9323
S1130610FF938091A800E82FF0E09CB1E755FF4FCD
S113062090838F5F8093A800853019F41092AF00F7
S1130630F894FF91EF919F918F910F900FBE0F90BF
S11306401F901895AEE0B0E0E8E2F3E00C94E30507
S11306500D891E8986E08C831A8309838FEF9FE7B7
S11306609E838D83AE01475E5F4F6F89788DCE0187
S113067001960E944403EF81F885E00FF11F108278
S11306802E96E4E00C94FF05ABE0B0E0EAE4F3E07E
S11306900C94D5056C017B018A01FC01178216823A
S11306A0838181FFCCC1CE0101963C01F601938187
S11306B0F70193FD859193FF81917F01882309F4CC
S11306C0BAC1853239F493FD859193FF81917F01FD
S11306D0853229F4B60190E00E943B05E7CF912CC6
S11306E0212C312CFFE1F315D8F08B3279F038F45A
S11306F0803279F08332A1F4232D20611DC08D3224
S113070061F0803369F4232D216016C0832D82604B
S1130710382EE32DE4603E2E2AC0F32DF8601DC070
S113072037FC2DC020ED280F2A3040F08E32B9F46A
S113073036FC81C1232D2064322E19C036FE06C03A
S11307408AE0989E200D1124922E11C0EAE02E9E7C
S1130750200D1124222EF32DF0623F2E08C08C367A
S113076021F4832D8068382E02C0883641F4F701C5
S113077093FD859193FF81917F018111B3CF982FD0
S11307809F7D9554933028F40C5F1F4F9FE399830A
S11307900DC0833631F0833771F0833509F059C0C9
S11307A021C0F801808189830E5F1F4F88248394C0
S11307B0912C530113C02801F2E04F0E511CF80193
S11307C0A080B18036FE03C0692D70E002C06FEFD7
S11307D07FEFC5010E9430054C018201F32DFF77A4
S11307E03F2E16C0280122E0420E511CF801A080C1
S11307F0B18036FE03C0692D70E002C06FEF7FEF59
S1130800C5010E9425054C01F32DF0683F2E82019D
S113081033FC1BC0822D90E088169906B0F4B60113
S113082080E290E00E943B052A94F4CFF50137FC66
S1130830859137FE81915F01B60190E00E943B05EE
S113084021102A9421E0821A91088114910471F7ED
S1130850E8C0843611F0893641F5F80137FE07C047
S113086060817181828193810C5F1F4F08C0608118
S11308707181072E000C880B990B0E5F1F4FF32D0F
S1130880FF763F2E97FF09C09095809570956195EE
S11308907F4F8F4F9F4FF0683F2E2AE030E0A30137
S11308A00E947705882E861845C0853731F4232D9C
S11308B02F7EB22E2AE030E025C0932D997FB92EE9
S11308C08F36C1F018F4883579F0B5C0803719F047
S11308D0883721F0B0C0E92FE061BE2EB4FE0DC010
S11308E0FB2DF460BF2E09C034FE0AC0292F2660F8
S11308F0B22E06C028E030E005C020E130E002C09E
S113090020E132E0F801B7FE07C060817181828185
S113091093810C5F1F4F06C06081718180E090E07D
S11309200E5F1F4FA3010E947705882E8618FB2DAA
S1130930FF773F2E36FE0DC0232D2E7FA22E891465
S113094058F434FE0BC032FC09C0832D8E7EA82ED1
S113095005C0B82CA32C03C0B82C01C0B92CA4FE2C
S11309600FC0FE01E80DF11D8081803321F49A2D22
S1130970997EA92E09C0A2FE06C0B394B39404C004
S11309808A2D867809F0B394A3FC11C0A0FE06C09A
S1130990B21488F4280C922C9B180EC0B21460F484
S11309A0B60180E290E00E943B05B394F7CFB21405
S11309B018F42B1802C0982C212CA4FE10C0B601E8
S11309C080E390E00E943B05A2FE17C0A1FC03C097
S11309D088E790E002C088E590E0B6010CC08A2D5B
S11309E0867859F0A1FE02C08BE201C080E2A7FC28
S11309F08DE2B60190E00E943B05891438F4B601FB
S1130A0080E390E00E943B059A94F7CF8A94F30127
S1130A10E80DF11D8081B60190E00E943B05811034
S1130A20F5CF222009F442CEB60180E290E00E9484
S1130A303B052A94F6CFF6018681978102C08FEF99
S1130A409FEF2B96E2E10C94F105FC0105906150B7
S1130A5070400110D8F7809590958E0F9F1F0895D0
S1130A60FC016150704001900110D8F78095909579
S1130A708E0F9F1F08950F931F93CF93DF93FB0156
S1130A80238121FD03C08FEF9FEF2CC022FF16C0EE
S1130A9046815781248135814217530744F4A0814C
S1130AA0B1819D012F5F3F4F318320838C93268139
S1130AB037812F5F3F4F3783268314C08B01EC01AE
S1130AC0FB010084F185E02D0995892BE1F6D8011D
S1130AD016968D919C911797019617969C938E93D9
S1130AE01697CE01DF91CF911F910F910895FA01CE
S1130AF0AA27283051F1203181F1E8946F936E7F59
S1130B006E5F7F4F8F4F9F4FAF4FB1E03ED0B4E049
S1130B103CD0670F781F891F9A1FA11D680F791F8A
S1130B208A1F911DA11D6A0F711D811D911DA11D9B
S1130B3020D009F468943F912AE0269F11243019AB
S1130B40305D3193DEF6CF010895462F4770405D46
S1130B504193B3E00FD0C9F7F6CF462F4F70405DF5
S1130B604A3318F0495D31FD4052419302D0A9F750
S1130B70EACFB4E0A6959795879577956795BA954A
S1130B80C9F700976105710508959B01AC010A2E10
S1130B9006945795479537952795BA95C9F7620FE7
S1130BA0731F841F951FA01D08952F923F924F928B
S1130BB05F926F927F928F929F92AF92BF92CF92E9
S1130BC0DF92EF92FF920F931F93CF93DF93CDB7F2
S1130BD0DEB7CA1BDB0B0FB6F894DEBF0FBECDBF6A
S1130BE009942A88398848885F846E847D848C843B
S1130BF09B84AA84B984C884DF80EE80FD800C8144
S1130C001B81AA81B981CE0FD11D0FB6F894DEBF26
S10F0C100FBECDBFED010895F894FFCF96
S1130C1C2000000053756E004D6F6E005475730008
S1130C2C576564005468720046726900536174001D
S1130C3C256425643A256425643A256425640025D5
S1130C4C6425642F256425642F32302564256420A3
S1070C5C25730000F8
S9030000FC
